{
  "contractName": "FractionalNFT",
  "abi": [
    {
      "inputs": [],
      "stateMutability": "nonpayable",
      "type": "constructor"
    },
    {
      "inputs": [
        {
          "internalType": "address",
          "name": "sender",
          "type": "address"
        },
        {
          "internalType": "uint256",
          "name": "tokenId",
          "type": "uint256"
        },
        {
          "internalType": "address",
          "name": "owner",
          "type": "address"
        }
      ],
      "name": "ERC721IncorrectOwner",
      "type": "error"
    },
    {
      "inputs": [
        {
          "internalType": "address",
          "name": "operator",
          "type": "address"
        },
        {
          "internalType": "uint256",
          "name": "tokenId",
          "type": "uint256"
        }
      ],
      "name": "ERC721InsufficientApproval",
      "type": "error"
    },
    {
      "inputs": [
        {
          "internalType": "address",
          "name": "approver",
          "type": "address"
        }
      ],
      "name": "ERC721InvalidApprover",
      "type": "error"
    },
    {
      "inputs": [
        {
          "internalType": "address",
          "name": "operator",
          "type": "address"
        }
      ],
      "name": "ERC721InvalidOperator",
      "type": "error"
    },
    {
      "inputs": [
        {
          "internalType": "address",
          "name": "owner",
          "type": "address"
        }
      ],
      "name": "ERC721InvalidOwner",
      "type": "error"
    },
    {
      "inputs": [
        {
          "internalType": "address",
          "name": "receiver",
          "type": "address"
        }
      ],
      "name": "ERC721InvalidReceiver",
      "type": "error"
    },
    {
      "inputs": [
        {
          "internalType": "address",
          "name": "sender",
          "type": "address"
        }
      ],
      "name": "ERC721InvalidSender",
      "type": "error"
    },
    {
      "inputs": [
        {
          "internalType": "uint256",
          "name": "tokenId",
          "type": "uint256"
        }
      ],
      "name": "ERC721NonexistentToken",
      "type": "error"
    },
    {
      "anonymous": false,
      "inputs": [
        {
          "indexed": true,
          "internalType": "address",
          "name": "owner",
          "type": "address"
        },
        {
          "indexed": true,
          "internalType": "address",
          "name": "approved",
          "type": "address"
        },
        {
          "indexed": true,
          "internalType": "uint256",
          "name": "tokenId",
          "type": "uint256"
        }
      ],
      "name": "Approval",
      "type": "event"
    },
    {
      "anonymous": false,
      "inputs": [
        {
          "indexed": true,
          "internalType": "address",
          "name": "owner",
          "type": "address"
        },
        {
          "indexed": true,
          "internalType": "address",
          "name": "operator",
          "type": "address"
        },
        {
          "indexed": false,
          "internalType": "bool",
          "name": "approved",
          "type": "bool"
        }
      ],
      "name": "ApprovalForAll",
      "type": "event"
    },
    {
      "anonymous": false,
      "inputs": [
        {
          "indexed": false,
          "internalType": "uint256",
          "name": "_fromTokenId",
          "type": "uint256"
        },
        {
          "indexed": false,
          "internalType": "uint256",
          "name": "_toTokenId",
          "type": "uint256"
        }
      ],
      "name": "BatchMetadataUpdate",
      "type": "event"
    },
    {
      "anonymous": false,
      "inputs": [
        {
          "indexed": false,
          "internalType": "uint256",
          "name": "_tokenId",
          "type": "uint256"
        }
      ],
      "name": "MetadataUpdate",
      "type": "event"
    },
    {
      "anonymous": false,
      "inputs": [
        {
          "indexed": true,
          "internalType": "address",
          "name": "from",
          "type": "address"
        },
        {
          "indexed": true,
          "internalType": "address",
          "name": "to",
          "type": "address"
        },
        {
          "indexed": true,
          "internalType": "uint256",
          "name": "tokenId",
          "type": "uint256"
        }
      ],
      "name": "Transfer",
      "type": "event"
    },
    {
      "inputs": [
        {
          "internalType": "address",
          "name": "to",
          "type": "address"
        },
        {
          "internalType": "uint256",
          "name": "tokenId",
          "type": "uint256"
        }
      ],
      "name": "approve",
      "outputs": [],
      "stateMutability": "nonpayable",
      "type": "function"
    },
    {
      "inputs": [
        {
          "internalType": "address",
          "name": "owner",
          "type": "address"
        }
      ],
      "name": "balanceOf",
      "outputs": [
        {
          "internalType": "uint256",
          "name": "",
          "type": "uint256"
        }
      ],
      "stateMutability": "view",
      "type": "function"
    },
    {
      "inputs": [
        {
          "internalType": "uint256",
          "name": "tokenId",
          "type": "uint256"
        }
      ],
      "name": "getApproved",
      "outputs": [
        {
          "internalType": "address",
          "name": "",
          "type": "address"
        }
      ],
      "stateMutability": "view",
      "type": "function"
    },
    {
      "inputs": [
        {
          "internalType": "address",
          "name": "owner",
          "type": "address"
        },
        {
          "internalType": "address",
          "name": "operator",
          "type": "address"
        }
      ],
      "name": "isApprovedForAll",
      "outputs": [
        {
          "internalType": "bool",
          "name": "",
          "type": "bool"
        }
      ],
      "stateMutability": "view",
      "type": "function"
    },
    {
      "inputs": [],
      "name": "name",
      "outputs": [
        {
          "internalType": "string",
          "name": "",
          "type": "string"
        }
      ],
      "stateMutability": "view",
      "type": "function"
    },
    {
      "inputs": [
        {
          "internalType": "uint256",
          "name": "tokenId",
          "type": "uint256"
        }
      ],
      "name": "ownerOf",
      "outputs": [
        {
          "internalType": "address",
          "name": "",
          "type": "address"
        }
      ],
      "stateMutability": "view",
      "type": "function"
    },
    {
      "inputs": [
        {
          "internalType": "address",
          "name": "from",
          "type": "address"
        },
        {
          "internalType": "address",
          "name": "to",
          "type": "address"
        },
        {
          "internalType": "uint256",
          "name": "tokenId",
          "type": "uint256"
        }
      ],
      "name": "safeTransferFrom",
      "outputs": [],
      "stateMutability": "nonpayable",
      "type": "function"
    },
    {
      "inputs": [
        {
          "internalType": "address",
          "name": "from",
          "type": "address"
        },
        {
          "internalType": "address",
          "name": "to",
          "type": "address"
        },
        {
          "internalType": "uint256",
          "name": "tokenId",
          "type": "uint256"
        },
        {
          "internalType": "bytes",
          "name": "data",
          "type": "bytes"
        }
      ],
      "name": "safeTransferFrom",
      "outputs": [],
      "stateMutability": "nonpayable",
      "type": "function"
    },
    {
      "inputs": [
        {
          "internalType": "address",
          "name": "operator",
          "type": "address"
        },
        {
          "internalType": "bool",
          "name": "approved",
          "type": "bool"
        }
      ],
      "name": "setApprovalForAll",
      "outputs": [],
      "stateMutability": "nonpayable",
      "type": "function"
    },
    {
      "inputs": [
        {
          "internalType": "bytes4",
          "name": "interfaceId",
          "type": "bytes4"
        }
      ],
      "name": "supportsInterface",
      "outputs": [
        {
          "internalType": "bool",
          "name": "",
          "type": "bool"
        }
      ],
      "stateMutability": "view",
      "type": "function"
    },
    {
      "inputs": [],
      "name": "symbol",
      "outputs": [
        {
          "internalType": "string",
          "name": "",
          "type": "string"
        }
      ],
      "stateMutability": "view",
      "type": "function"
    },
    {
      "inputs": [
        {
          "internalType": "uint256",
          "name": "tokenId",
          "type": "uint256"
        }
      ],
      "name": "tokenURI",
      "outputs": [
        {
          "internalType": "string",
          "name": "",
          "type": "string"
        }
      ],
      "stateMutability": "view",
      "type": "function"
    },
    {
      "inputs": [
        {
          "internalType": "address",
          "name": "from",
          "type": "address"
        },
        {
          "internalType": "address",
          "name": "to",
          "type": "address"
        },
        {
          "internalType": "uint256",
          "name": "tokenId",
          "type": "uint256"
        }
      ],
      "name": "transferFrom",
      "outputs": [],
      "stateMutability": "nonpayable",
      "type": "function"
    },
    {
      "inputs": [
        {
          "internalType": "address",
          "name": "recipient",
          "type": "address"
        },
        {
          "internalType": "string",
          "name": "tokenURI",
          "type": "string"
        }
      ],
      "name": "mintFractionalNFT",
      "outputs": [
        {
          "internalType": "uint256",
          "name": "",
          "type": "uint256"
        }
      ],
      "stateMutability": "nonpayable",
      "type": "function"
    }
  ],
  "bytecode": "0x60806040525f60075534801562000014575f80fd5b506040518060400160405280600d81526020017f4672616374696f6e616c4e4654000000000000000000000000000000000000008152506040518060400160405280600581526020017f462d4e4654000000000000000000000000000000000000000000000000000000815250815f908162000091919062000310565b508060019081620000a3919062000310565b505050620003f4565b5f81519050919050565b7f4e487b71000000000000000000000000000000000000000000000000000000005f52604160045260245ffd5b7f4e487b71000000000000000000000000000000000000000000000000000000005f52602260045260245ffd5b5f60028204905060018216806200012857607f821691505b6020821081036200013e576200013d620000e3565b5b50919050565b5f819050815f5260205f209050919050565b5f6020601f8301049050919050565b5f82821b905092915050565b5f60088302620001a27fffffffffffffffffffffffffffffffffffffffffffffffffffffffffffffffff8262000165565b620001ae868362000165565b95508019841693508086168417925050509392505050565b5f819050919050565b5f819050919050565b5f620001f8620001f2620001ec84620001c6565b620001cf565b620001c6565b9050919050565b5f819050919050565b6200021383620001d8565b6200022b6200022282620001ff565b84845462000171565b825550505050565b5f90565b6200024162000233565b6200024e81848462000208565b505050565b5b818110156200027557620002695f8262000237565b60018101905062000254565b5050565b601f821115620002c4576200028e8162000144565b620002998462000156565b81016020851015620002a9578190505b620002c1620002b88562000156565b83018262000253565b50505b505050565b5f82821c905092915050565b5f620002e65f1984600802620002c9565b1980831691505092915050565b5f620003008383620002d5565b9150826002028217905092915050565b6200031b82620000ac565b67ffffffffffffffff811115620003375762000336620000b6565b5b62000343825462000110565b6200035082828562000279565b5f60209050601f83116001811462000386575f841562000371578287015190505b6200037d8582620002f3565b865550620003ec565b601f198416620003968662000144565b5f5b82811015620003bf5784890151825560018201915060208501945060208101905062000398565b86831015620003df5784890151620003db601f891682620002d5565b8355505b6001600288020188555050505b505050505050565b6122dd80620004025f395ff3fe608060405234801561000f575f80fd5b50600436106100e8575f3560e01c806370a082311161008a578063a22cb46511610064578063a22cb4651461026c578063b88d4fde14610288578063c87b56dd146102a4578063e985e9c5146102d4576100e8565b806370a08231146101ee5780638d690ca81461021e57806395d89b411461024e576100e8565b8063095ea7b3116100c6578063095ea7b31461016a57806323b872dd1461018657806342842e0e146101a25780636352211e146101be576100e8565b806301ffc9a7146100ec57806306fdde031461011c578063081812fc1461013a575b5f80fd5b610106600480360381019061010191906117aa565b610304565b60405161011391906117ef565b60405180910390f35b610124610364565b6040516101319190611892565b60405180910390f35b610154600480360381019061014f91906118e5565b6103f3565b604051610161919061194f565b60405180910390f35b610184600480360381019061017f9190611992565b61040e565b005b6101a0600480360381019061019b91906119d0565b610424565b005b6101bc60048036038101906101b791906119d0565b610523565b005b6101d860048036038101906101d391906118e5565b610542565b6040516101e5919061194f565b60405180910390f35b61020860048036038101906102039190611a20565b610553565b6040516102159190611a5a565b60405180910390f35b61023860048036038101906102339190611b9f565b610609565b6040516102459190611a5a565b60405180910390f35b610256610641565b6040516102639190611892565b60405180910390f35b61028660048036038101906102819190611c23565b6106d1565b005b6102a2600480360381019061029d9190611cff565b6106e7565b005b6102be60048036038101906102b991906118e5565b610704565b6040516102cb9190611892565b60405180910390f35b6102ee60048036038101906102e99190611d7f565b61080f565b6040516102fb91906117ef565b60405180910390f35b5f634906490660e01b7bffffffffffffffffffffffffffffffffffffffffffffffffffffffff1916827bffffffffffffffffffffffffffffffffffffffffffffffffffffffff1916148061035d575061035c8261089d565b5b9050919050565b60605f805461037290611dea565b80601f016020809104026020016040519081016040528092919081815260200182805461039e90611dea565b80156103e95780601f106103c0576101008083540402835291602001916103e9565b820191905f5260205f20905b8154815290600101906020018083116103cc57829003601f168201915b5050505050905090565b5f6103fd8261097e565b5061040782610a04565b9050919050565b610420828261041b610a3d565b610a44565b5050565b5f73ffffffffffffffffffffffffffffffffffffffff168273ffffffffffffffffffffffffffffffffffffffff1603610494575f6040517f64a0ae9200000000000000000000000000000000000000000000000000000000815260040161048b919061194f565b60405180910390fd5b5f6104a783836104a2610a3d565b610a56565b90508373ffffffffffffffffffffffffffffffffffffffff168173ffffffffffffffffffffffffffffffffffffffff161461051d578382826040517f64283d7b00000000000000000000000000000000000000000000000000000000815260040161051493929190611e1a565b60405180910390fd5b50505050565b61053d83838360405180602001604052805f8152506106e7565b505050565b5f61054c8261097e565b9050919050565b5f8073ffffffffffffffffffffffffffffffffffffffff168273ffffffffffffffffffffffffffffffffffffffff16036105c4575f6040517f89c62b640000000000000000000000000000000000000000000000000000000081526004016105bb919061194f565b60405180910390fd5b60035f8373ffffffffffffffffffffffffffffffffffffffff1673ffffffffffffffffffffffffffffffffffffffff1681526020019081526020015f20549050919050565b5f80600160075461061a9190611e7c565b90508060078190555061062d8482610c61565b6106378184610d54565b8091505092915050565b60606001805461065090611dea565b80601f016020809104026020016040519081016040528092919081815260200182805461067c90611dea565b80156106c75780601f1061069e576101008083540402835291602001916106c7565b820191905f5260205f20905b8154815290600101906020018083116106aa57829003601f168201915b5050505050905090565b6106e36106dc610a3d565b8383610dae565b5050565b6106f2848484610424565b6106fe84848484610f17565b50505050565b606061070f8261097e565b505f60065f8481526020019081526020015f20805461072d90611dea565b80601f016020809104026020016040519081016040528092919081815260200182805461075990611dea565b80156107a45780601f1061077b576101008083540402835291602001916107a4565b820191905f5260205f20905b81548152906001019060200180831161078757829003601f168201915b505050505090505f6107b46110c9565b90505f8151036107c857819250505061080a565b5f825111156107fc5780826040516020016107e4929190611ee9565b6040516020818303038152906040529250505061080a565b610805846110df565b925050505b919050565b5f60055f8473ffffffffffffffffffffffffffffffffffffffff1673ffffffffffffffffffffffffffffffffffffffff1681526020019081526020015f205f8373ffffffffffffffffffffffffffffffffffffffff1673ffffffffffffffffffffffffffffffffffffffff1681526020019081526020015f205f9054906101000a900460ff16905092915050565b5f7f80ac58cd000000000000000000000000000000000000000000000000000000007bffffffffffffffffffffffffffffffffffffffffffffffffffffffff1916827bffffffffffffffffffffffffffffffffffffffffffffffffffffffff1916148061096757507f5b5e139f000000000000000000000000000000000000000000000000000000007bffffffffffffffffffffffffffffffffffffffffffffffffffffffff1916827bffffffffffffffffffffffffffffffffffffffffffffffffffffffff1916145b80610977575061097682611145565b5b9050919050565b5f80610989836111ae565b90505f73ffffffffffffffffffffffffffffffffffffffff168173ffffffffffffffffffffffffffffffffffffffff16036109fb57826040517f7e2732890000000000000000000000000000000000000000000000000000000081526004016109f29190611a5a565b60405180910390fd5b80915050919050565b5f60045f8381526020019081526020015f205f9054906101000a900473ffffffffffffffffffffffffffffffffffffffff169050919050565b5f33905090565b610a5183838360016111e7565b505050565b5f80610a61846111ae565b90505f73ffffffffffffffffffffffffffffffffffffffff168373ffffffffffffffffffffffffffffffffffffffff1614610aa257610aa18184866113a6565b5b5f73ffffffffffffffffffffffffffffffffffffffff168173ffffffffffffffffffffffffffffffffffffffff1614610b2d57610ae15f855f806111e7565b600160035f8373ffffffffffffffffffffffffffffffffffffffff1673ffffffffffffffffffffffffffffffffffffffff1681526020019081526020015f205f82825403925050819055505b5f73ffffffffffffffffffffffffffffffffffffffff168573ffffffffffffffffffffffffffffffffffffffff1614610bac57600160035f8773ffffffffffffffffffffffffffffffffffffffff1673ffffffffffffffffffffffffffffffffffffffff1681526020019081526020015f205f82825401925050819055505b8460025f8681526020019081526020015f205f6101000a81548173ffffffffffffffffffffffffffffffffffffffff021916908373ffffffffffffffffffffffffffffffffffffffff160217905550838573ffffffffffffffffffffffffffffffffffffffff168273ffffffffffffffffffffffffffffffffffffffff167fddf252ad1be2c89b69c2b068fc378daa952ba7f163c4a11628f55a4df523b3ef60405160405180910390a4809150509392505050565b5f73ffffffffffffffffffffffffffffffffffffffff168273ffffffffffffffffffffffffffffffffffffffff1603610cd1575f6040517f64a0ae92000000000000000000000000000000000000000000000000000000008152600401610cc8919061194f565b60405180910390fd5b5f610cdd83835f610a56565b90505f73ffffffffffffffffffffffffffffffffffffffff168173ffffffffffffffffffffffffffffffffffffffff1614610d4f575f6040517f73c6ac6e000000000000000000000000000000000000000000000000000000008152600401610d46919061194f565b60405180910390fd5b505050565b8060065f8481526020019081526020015f209081610d7291906120a9565b507ff8e1a15aba9398e019f0b49df1a4fde98ee17ae345cb5f6b5e2c27f5033e8ce782604051610da29190611a5a565b60405180910390a15050565b5f73ffffffffffffffffffffffffffffffffffffffff168273ffffffffffffffffffffffffffffffffffffffff1603610e1e57816040517f5b08ba18000000000000000000000000000000000000000000000000000000008152600401610e15919061194f565b60405180910390fd5b8060055f8573ffffffffffffffffffffffffffffffffffffffff1673ffffffffffffffffffffffffffffffffffffffff1681526020019081526020015f205f8473ffffffffffffffffffffffffffffffffffffffff1673ffffffffffffffffffffffffffffffffffffffff1681526020019081526020015f205f6101000a81548160ff0219169083151502179055508173ffffffffffffffffffffffffffffffffffffffff168373ffffffffffffffffffffffffffffffffffffffff167f17307eab39ab6107e8899845ad3d59bd9653f200f220920489ca2b5937696c3183604051610f0a91906117ef565b60405180910390a3505050565b5f8373ffffffffffffffffffffffffffffffffffffffff163b11156110c3578273ffffffffffffffffffffffffffffffffffffffff1663150b7a02610f5a610a3d565b8685856040518563ffffffff1660e01b8152600401610f7c94939291906121ca565b6020604051808303815f875af1925050508015610fb757506040513d601f19601f82011682018060405250810190610fb49190612228565b60015b611038573d805f8114610fe5576040519150601f19603f3d011682016040523d82523d5f602084013e610fea565b606091505b505f81510361103057836040517f64a0ae92000000000000000000000000000000000000000000000000000000008152600401611027919061194f565b60405180910390fd5b805181602001fd5b63150b7a0260e01b7bffffffffffffffffffffffffffffffffffffffffffffffffffffffff1916817bffffffffffffffffffffffffffffffffffffffffffffffffffffffff1916146110c157836040517f64a0ae920000000000000000000000000000000000000000000000000000000081526004016110b8919061194f565b60405180910390fd5b505b50505050565b606060405180602001604052805f815250905090565b60606110ea8261097e565b505f6110f46110c9565b90505f8151116111125760405180602001604052805f81525061113d565b8061111c84611469565b60405160200161112d929190611ee9565b6040516020818303038152906040525b915050919050565b5f7f01ffc9a7000000000000000000000000000000000000000000000000000000007bffffffffffffffffffffffffffffffffffffffffffffffffffffffff1916827bffffffffffffffffffffffffffffffffffffffffffffffffffffffff1916149050919050565b5f60025f8381526020019081526020015f205f9054906101000a900473ffffffffffffffffffffffffffffffffffffffff169050919050565b808061121f57505f73ffffffffffffffffffffffffffffffffffffffff168273ffffffffffffffffffffffffffffffffffffffff1614155b15611351575f61122e8461097e565b90505f73ffffffffffffffffffffffffffffffffffffffff168373ffffffffffffffffffffffffffffffffffffffff161415801561129857508273ffffffffffffffffffffffffffffffffffffffff168173ffffffffffffffffffffffffffffffffffffffff1614155b80156112ab57506112a9818461080f565b155b156112ed57826040517fa9fbf51f0000000000000000000000000000000000000000000000000000000081526004016112e4919061194f565b60405180910390fd5b811561134f57838573ffffffffffffffffffffffffffffffffffffffff168273ffffffffffffffffffffffffffffffffffffffff167f8c5be1e5ebec7d5bd14f71427d1e84f3dd0314c0f7b2291e5b200ac8c7c3b92560405160405180910390a45b505b8360045f8581526020019081526020015f205f6101000a81548173ffffffffffffffffffffffffffffffffffffffff021916908373ffffffffffffffffffffffffffffffffffffffff16021790555050505050565b6113b1838383611533565b611464575f73ffffffffffffffffffffffffffffffffffffffff168373ffffffffffffffffffffffffffffffffffffffff160361142557806040517f7e27328900000000000000000000000000000000000000000000000000000000815260040161141c9190611a5a565b60405180910390fd5b81816040517f177e802f00000000000000000000000000000000000000000000000000000000815260040161145b929190612253565b60405180910390fd5b505050565b60605f6001611477846115f3565b0190505f8167ffffffffffffffff81111561149557611494611a7b565b5b6040519080825280601f01601f1916602001820160405280156114c75781602001600182028036833780820191505090505b5090505f82602001820190505b600115611528578080600190039150507f3031323334353637383961626364656600000000000000000000000000000000600a86061a8153600a858161151d5761151c61227a565b5b0494505f85036114d4575b819350505050919050565b5f8073ffffffffffffffffffffffffffffffffffffffff168373ffffffffffffffffffffffffffffffffffffffff16141580156115ea57508273ffffffffffffffffffffffffffffffffffffffff168473ffffffffffffffffffffffffffffffffffffffff1614806115ab57506115aa848461080f565b5b806115e957508273ffffffffffffffffffffffffffffffffffffffff166115d183610a04565b73ffffffffffffffffffffffffffffffffffffffff16145b5b90509392505050565b5f805f90507a184f03e93ff9f4daa797ed6e38ed64bf6a1f010000000000000000831061164f577a184f03e93ff9f4daa797ed6e38ed64bf6a1f01000000000000000083816116455761164461227a565b5b0492506040810190505b6d04ee2d6d415b85acef8100000000831061168c576d04ee2d6d415b85acef810000000083816116825761168161227a565b5b0492506020810190505b662386f26fc1000083106116bb57662386f26fc1000083816116b1576116b061227a565b5b0492506010810190505b6305f5e10083106116e4576305f5e10083816116da576116d961227a565b5b0492506008810190505b61271083106117095761271083816116ff576116fe61227a565b5b0492506004810190505b6064831061172c57606483816117225761172161227a565b5b0492506002810190505b600a831061173b576001810190505b80915050919050565b5f604051905090565b5f80fd5b5f80fd5b5f7fffffffff0000000000000000000000000000000000000000000000000000000082169050919050565b61178981611755565b8114611793575f80fd5b50565b5f813590506117a481611780565b92915050565b5f602082840312156117bf576117be61174d565b5b5f6117cc84828501611796565b91505092915050565b5f8115159050919050565b6117e9816117d5565b82525050565b5f6020820190506118025f8301846117e0565b92915050565b5f81519050919050565b5f82825260208201905092915050565b5f5b8381101561183f578082015181840152602081019050611824565b5f8484015250505050565b5f601f19601f8301169050919050565b5f61186482611808565b61186e8185611812565b935061187e818560208601611822565b6118878161184a565b840191505092915050565b5f6020820190508181035f8301526118aa818461185a565b905092915050565b5f819050919050565b6118c4816118b2565b81146118ce575f80fd5b50565b5f813590506118df816118bb565b92915050565b5f602082840312156118fa576118f961174d565b5b5f611907848285016118d1565b91505092915050565b5f73ffffffffffffffffffffffffffffffffffffffff82169050919050565b5f61193982611910565b9050919050565b6119498161192f565b82525050565b5f6020820190506119625f830184611940565b92915050565b6119718161192f565b811461197b575f80fd5b50565b5f8135905061198c81611968565b92915050565b5f80604083850312156119a8576119a761174d565b5b5f6119b58582860161197e565b92505060206119c6858286016118d1565b9150509250929050565b5f805f606084860312156119e7576119e661174d565b5b5f6119f48682870161197e565b9350506020611a058682870161197e565b9250506040611a16868287016118d1565b9150509250925092565b5f60208284031215611a3557611a3461174d565b5b5f611a428482850161197e565b91505092915050565b611a54816118b2565b82525050565b5f602082019050611a6d5f830184611a4b565b92915050565b5f80fd5b5f80fd5b7f4e487b71000000000000000000000000000000000000000000000000000000005f52604160045260245ffd5b611ab18261184a565b810181811067ffffffffffffffff82111715611ad057611acf611a7b565b5b80604052505050565b5f611ae2611744565b9050611aee8282611aa8565b919050565b5f67ffffffffffffffff821115611b0d57611b0c611a7b565b5b611b168261184a565b9050602081019050919050565b828183375f83830152505050565b5f611b43611b3e84611af3565b611ad9565b905082815260208101848484011115611b5f57611b5e611a77565b5b611b6a848285611b23565b509392505050565b5f82601f830112611b8657611b85611a73565b5b8135611b96848260208601611b31565b91505092915050565b5f8060408385031215611bb557611bb461174d565b5b5f611bc28582860161197e565b925050602083013567ffffffffffffffff811115611be357611be2611751565b5b611bef85828601611b72565b9150509250929050565b611c02816117d5565b8114611c0c575f80fd5b50565b5f81359050611c1d81611bf9565b92915050565b5f8060408385031215611c3957611c3861174d565b5b5f611c468582860161197e565b9250506020611c5785828601611c0f565b9150509250929050565b5f67ffffffffffffffff821115611c7b57611c7a611a7b565b5b611c848261184a565b9050602081019050919050565b5f611ca3611c9e84611c61565b611ad9565b905082815260208101848484011115611cbf57611cbe611a77565b5b611cca848285611b23565b509392505050565b5f82601f830112611ce657611ce5611a73565b5b8135611cf6848260208601611c91565b91505092915050565b5f805f8060808587031215611d1757611d1661174d565b5b5f611d248782880161197e565b9450506020611d358782880161197e565b9350506040611d46878288016118d1565b925050606085013567ffffffffffffffff811115611d6757611d66611751565b5b611d7387828801611cd2565b91505092959194509250565b5f8060408385031215611d9557611d9461174d565b5b5f611da28582860161197e565b9250506020611db38582860161197e565b9150509250929050565b7f4e487b71000000000000000000000000000000000000000000000000000000005f52602260045260245ffd5b5f6002820490506001821680611e0157607f821691505b602082108103611e1457611e13611dbd565b5b50919050565b5f606082019050611e2d5f830186611940565b611e3a6020830185611a4b565b611e476040830184611940565b949350505050565b7f4e487b71000000000000000000000000000000000000000000000000000000005f52601160045260245ffd5b5f611e86826118b2565b9150611e91836118b2565b9250828201905080821115611ea957611ea8611e4f565b5b92915050565b5f81905092915050565b5f611ec382611808565b611ecd8185611eaf565b9350611edd818560208601611822565b80840191505092915050565b5f611ef48285611eb9565b9150611f008284611eb9565b91508190509392505050565b5f819050815f5260205f209050919050565b5f6020601f8301049050919050565b5f82821b905092915050565b5f60088302611f687fffffffffffffffffffffffffffffffffffffffffffffffffffffffffffffffff82611f2d565b611f728683611f2d565b95508019841693508086168417925050509392505050565b5f819050919050565b5f611fad611fa8611fa3846118b2565b611f8a565b6118b2565b9050919050565b5f819050919050565b611fc683611f93565b611fda611fd282611fb4565b848454611f39565b825550505050565b5f90565b611fee611fe2565b611ff9818484611fbd565b505050565b5b8181101561201c576120115f82611fe6565b600181019050611fff565b5050565b601f8211156120615761203281611f0c565b61203b84611f1e565b8101602085101561204a578190505b61205e61205685611f1e565b830182611ffe565b50505b505050565b5f82821c905092915050565b5f6120815f1984600802612066565b1980831691505092915050565b5f6120998383612072565b9150826002028217905092915050565b6120b282611808565b67ffffffffffffffff8111156120cb576120ca611a7b565b5b6120d58254611dea565b6120e0828285612020565b5f60209050601f831160018114612111575f84156120ff578287015190505b612109858261208e565b865550612170565b601f19841661211f86611f0c565b5f5b8281101561214657848901518255600182019150602085019450602081019050612121565b86831015612163578489015161215f601f891682612072565b8355505b6001600288020188555050505b505050505050565b5f81519050919050565b5f82825260208201905092915050565b5f61219c82612178565b6121a68185612182565b93506121b6818560208601611822565b6121bf8161184a565b840191505092915050565b5f6080820190506121dd5f830187611940565b6121ea6020830186611940565b6121f76040830185611a4b565b81810360608301526122098184612192565b905095945050505050565b5f8151905061222281611780565b92915050565b5f6020828403121561223d5761223c61174d565b5b5f61224a84828501612214565b91505092915050565b5f6040820190506122665f830185611940565b6122736020830184611a4b565b9392505050565b7f4e487b71000000000000000000000000000000000000000000000000000000005f52601260045260245ffdfea26469706673582212201c62aa5e0160bd9938188c1a557ac3df1295c1ed7995fa3aa32b01a54434028964736f6c63430008150033",
  "immutableReferences": {},
  "source": "// SPDX-License-Identifier: MIT\npragma solidity ^0.8.0;\n\nimport \"@openzeppelin/contracts/token/ERC721/ERC721.sol\";\nimport \"@openzeppelin/contracts/token/ERC721/extensions/ERC721URIStorage.sol\";\n\ncontract FractionalNFT is ERC721URIStorage {\n    uint256 private _tokenIdTracker = 0;\n\n    constructor() ERC721(\"FractionalNFT\", \"F-NFT\") {}\n\n    function mintFractionalNFT(address recipient, string memory tokenURI)\n        public\n        returns (uint256)\n    {\n        uint256 newItemId = _tokenIdTracker + 1;\n        _tokenIdTracker = newItemId;\n\n        _mint(recipient, newItemId);\n        _setTokenURI(newItemId, tokenURI);\n\n        return newItemId;\n    }\n}\n",
  "sourcePath": "/Users/meenasmacbook/Desktop/kodikon/chatgot/contracts/FractionalNFT.sol",
  "compiler": {
    "name": "solc",
    "version": "0.8.21+commit.d9974bed.Emscripten.clang"
  },
  "schemaVersion": "3.4.16",
  "updatedAt": "2023-11-04T11:04:04.007Z",
  "devdoc": {
    "errors": {
      "ERC721IncorrectOwner(address,uint256,address)": [
        {
          "details": "Indicates an error related to the ownership over a particular token. Used in transfers.",
          "params": {
            "owner": "Address of the current owner of a token.",
            "sender": "Address whose tokens are being transferred.",
            "tokenId": "Identifier number of a token."
          }
        }
      ],
      "ERC721InsufficientApproval(address,uint256)": [
        {
          "details": "Indicates a failure with the `operator`s approval. Used in transfers.",
          "params": {
            "operator": "Address that may be allowed to operate on tokens without being their owner.",
            "tokenId": "Identifier number of a token."
          }
        }
      ],
      "ERC721InvalidApprover(address)": [
        {
          "details": "Indicates a failure with the `approver` of a token to be approved. Used in approvals.",
          "params": {
            "approver": "Address initiating an approval operation."
          }
        }
      ],
      "ERC721InvalidOperator(address)": [
        {
          "details": "Indicates a failure with the `operator` to be approved. Used in approvals.",
          "params": {
            "operator": "Address that may be allowed to operate on tokens without being their owner."
          }
        }
      ],
      "ERC721InvalidOwner(address)": [
        {
          "details": "Indicates that an address can't be an owner. For example, `address(0)` is a forbidden owner in EIP-20. Used in balance queries.",
          "params": {
            "owner": "Address of the current owner of a token."
          }
        }
      ],
      "ERC721InvalidReceiver(address)": [
        {
          "details": "Indicates a failure with the token `receiver`. Used in transfers.",
          "params": {
            "receiver": "Address to which tokens are being transferred."
          }
        }
      ],
      "ERC721InvalidSender(address)": [
        {
          "details": "Indicates a failure with the token `sender`. Used in transfers.",
          "params": {
            "sender": "Address whose tokens are being transferred."
          }
        }
      ],
      "ERC721NonexistentToken(uint256)": [
        {
          "details": "Indicates a `tokenId` whose `owner` is the zero address.",
          "params": {
            "tokenId": "Identifier number of a token."
          }
        }
      ]
    },
    "events": {
      "Approval(address,address,uint256)": {
        "details": "Emitted when `owner` enables `approved` to manage the `tokenId` token."
      },
      "ApprovalForAll(address,address,bool)": {
        "details": "Emitted when `owner` enables or disables (`approved`) `operator` to manage all of its assets."
      },
      "BatchMetadataUpdate(uint256,uint256)": {
        "details": "This event emits when the metadata of a range of tokens is changed. So that the third-party platforms such as NFT market could timely update the images and related attributes of the NFTs."
      },
      "MetadataUpdate(uint256)": {
        "details": "This event emits when the metadata of a token is changed. So that the third-party platforms such as NFT market could timely update the images and related attributes of the NFT."
      },
      "Transfer(address,address,uint256)": {
        "details": "Emitted when `tokenId` token is transferred from `from` to `to`."
      }
    },
    "kind": "dev",
    "methods": {
      "approve(address,uint256)": {
        "details": "See {IERC721-approve}."
      },
      "balanceOf(address)": {
        "details": "See {IERC721-balanceOf}."
      },
      "getApproved(uint256)": {
        "details": "See {IERC721-getApproved}."
      },
      "isApprovedForAll(address,address)": {
        "details": "See {IERC721-isApprovedForAll}."
      },
      "name()": {
        "details": "See {IERC721Metadata-name}."
      },
      "ownerOf(uint256)": {
        "details": "See {IERC721-ownerOf}."
      },
      "safeTransferFrom(address,address,uint256)": {
        "details": "See {IERC721-safeTransferFrom}."
      },
      "safeTransferFrom(address,address,uint256,bytes)": {
        "details": "See {IERC721-safeTransferFrom}."
      },
      "setApprovalForAll(address,bool)": {
        "details": "See {IERC721-setApprovalForAll}."
      },
      "supportsInterface(bytes4)": {
        "details": "See {IERC165-supportsInterface}"
      },
      "symbol()": {
        "details": "See {IERC721Metadata-symbol}."
      },
      "tokenURI(uint256)": {
        "details": "See {IERC721Metadata-tokenURI}."
      },
      "transferFrom(address,address,uint256)": {
        "details": "See {IERC721-transferFrom}."
      }
    },
    "version": 1
  },
  "userdoc": {
    "kind": "user",
    "methods": {},
    "version": 1
  }
}