{
  "contractName": "Marketplace",
  "abi": [
    {
      "inputs": [
        {
          "internalType": "address",
          "name": "_nftContract",
          "type": "address"
        }
      ],
      "stateMutability": "nonpayable",
      "type": "constructor"
    },
    {
      "anonymous": false,
      "inputs": [
        {
          "indexed": true,
          "internalType": "uint256",
          "name": "tokenId",
          "type": "uint256"
        },
        {
          "indexed": true,
          "internalType": "address",
          "name": "seller",
          "type": "address"
        },
        {
          "indexed": false,
          "internalType": "uint256",
          "name": "price",
          "type": "uint256"
        }
      ],
      "name": "Listed",
      "type": "event"
    },
    {
      "anonymous": false,
      "inputs": [
        {
          "indexed": true,
          "internalType": "uint256",
          "name": "tokenId",
          "type": "uint256"
        },
        {
          "indexed": true,
          "internalType": "address",
          "name": "seller",
          "type": "address"
        },
        {
          "indexed": true,
          "internalType": "address",
          "name": "buyer",
          "type": "address"
        },
        {
          "indexed": false,
          "internalType": "uint256",
          "name": "price",
          "type": "uint256"
        }
      ],
      "name": "Sold",
      "type": "event"
    },
    {
      "inputs": [
        {
          "internalType": "uint256",
          "name": "",
          "type": "uint256"
        }
      ],
      "name": "listings",
      "outputs": [
        {
          "internalType": "uint256",
          "name": "tokenId",
          "type": "uint256"
        },
        {
          "internalType": "address",
          "name": "seller",
          "type": "address"
        },
        {
          "internalType": "uint256",
          "name": "price",
          "type": "uint256"
        },
        {
          "internalType": "bool",
          "name": "isSold",
          "type": "bool"
        }
      ],
      "stateMutability": "view",
      "type": "function"
    },
    {
      "inputs": [],
      "name": "nftContract",
      "outputs": [
        {
          "internalType": "contract IERC721",
          "name": "",
          "type": "address"
        }
      ],
      "stateMutability": "view",
      "type": "function"
    },
    {
      "inputs": [
        {
          "internalType": "uint256",
          "name": "tokenId",
          "type": "uint256"
        },
        {
          "internalType": "uint256",
          "name": "price",
          "type": "uint256"
        }
      ],
      "name": "listToken",
      "outputs": [],
      "stateMutability": "nonpayable",
      "type": "function"
    },
    {
      "inputs": [
        {
          "internalType": "uint256",
          "name": "listingId",
          "type": "uint256"
        }
      ],
      "name": "buyToken",
      "outputs": [],
      "stateMutability": "payable",
      "type": "function"
    }
  ],
  "bytecode": "0x60a060405234801561000f575f80fd5b50604051610d19380380610d19833981810160405281019061003191906100c9565b8073ffffffffffffffffffffffffffffffffffffffff1660808173ffffffffffffffffffffffffffffffffffffffff1681525050506100f4565b5f80fd5b5f73ffffffffffffffffffffffffffffffffffffffff82169050919050565b5f6100988261006f565b9050919050565b6100a88161008e565b81146100b2575f80fd5b50565b5f815190506100c38161009f565b92915050565b5f602082840312156100de576100dd61006b565b5b5f6100eb848285016100b5565b91505092915050565b608051610bf86101215f395f81816101c70152818161038d0152818161047b01526106800152610bf85ff3fe60806040526004361061003e575f3560e01c80632d296bf11461004257806375c1631d1461005e578063d56d229d14610086578063de74e57b146100b0575b5f80fd5b61005c6004803603810190610057919061073e565b6100ef565b005b348015610069575f80fd5b50610084600480360381019061007f9190610769565b610374565b005b348015610091575f80fd5b5061009a61067e565b6040516100a79190610821565b60405180910390f35b3480156100bb575f80fd5b506100d660048036038101906100d1919061073e565b6106a2565b6040516100e69493929190610883565b60405180910390f35b5f808281548110610103576101026108c6565b5b905f5260205f2090600402019050806003015f9054906101000a900460ff1615610162576040517f08c379a00000000000000000000000000000000000000000000000000000000081526004016101599061094d565b60405180910390fd5b80600201543410156101a9576040517f08c379a00000000000000000000000000000000000000000000000000000000081526004016101a0906109b5565b60405180910390fd5b6001816003015f6101000a81548160ff0219169083151502179055507f000000000000000000000000000000000000000000000000000000000000000073ffffffffffffffffffffffffffffffffffffffff166323b872dd826001015f9054906101000a900473ffffffffffffffffffffffffffffffffffffffff1633845f01546040518463ffffffff1660e01b8152600401610248939291906109d3565b5f604051808303815f87803b15801561025f575f80fd5b505af1158015610271573d5f803e3d5ffd5b50505050806001015f9054906101000a900473ffffffffffffffffffffffffffffffffffffffff1673ffffffffffffffffffffffffffffffffffffffff166108fc826002015490811502906040515f60405180830381858888f193505050501580156102df573d5f803e3d5ffd5b503373ffffffffffffffffffffffffffffffffffffffff16816001015f9054906101000a900473ffffffffffffffffffffffffffffffffffffffff1673ffffffffffffffffffffffffffffffffffffffff16825f01547f23f50d55776d8003622a982ade45a6c7f083116c8dbbcd980f59942f440badb184600201546040516103689190610a08565b60405180910390a45050565b3373ffffffffffffffffffffffffffffffffffffffff167f000000000000000000000000000000000000000000000000000000000000000073ffffffffffffffffffffffffffffffffffffffff16636352211e846040518263ffffffff1660e01b81526004016103e49190610a08565b602060405180830381865afa1580156103ff573d5f803e3d5ffd5b505050506040513d601f19601f820116820180604052508101906104239190610a4b565b73ffffffffffffffffffffffffffffffffffffffff1614610479576040517f08c379a000000000000000000000000000000000000000000000000000000000815260040161047090610ac0565b60405180910390fd5b7f000000000000000000000000000000000000000000000000000000000000000073ffffffffffffffffffffffffffffffffffffffff1663e985e9c533306040518363ffffffff1660e01b81526004016104d4929190610ade565b602060405180830381865afa1580156104ef573d5f803e3d5ffd5b505050506040513d601f19601f820116820180604052508101906105139190610b2f565b610552576040517f08c379a000000000000000000000000000000000000000000000000000000000815260040161054990610ba4565b60405180910390fd5b5f60405180608001604052808481526020013373ffffffffffffffffffffffffffffffffffffffff1681526020018381526020015f1515815250908060018154018082558091505060019003905f5260205f2090600402015f909190919091505f820151815f01556020820151816001015f6101000a81548173ffffffffffffffffffffffffffffffffffffffff021916908373ffffffffffffffffffffffffffffffffffffffff160217905550604082015181600201556060820151816003015f6101000a81548160ff02191690831515021790555050503373ffffffffffffffffffffffffffffffffffffffff16827f50955776c5778c3b7d968d86d8c51fb6b29a7a74c20866b533268e209fc08343836040516106729190610a08565b60405180910390a35050565b7f000000000000000000000000000000000000000000000000000000000000000081565b5f81815481106106b0575f80fd5b905f5260205f2090600402015f91509050805f015490806001015f9054906101000a900473ffffffffffffffffffffffffffffffffffffffff1690806002015490806003015f9054906101000a900460ff16905084565b5f80fd5b5f819050919050565b61071d8161070b565b8114610727575f80fd5b50565b5f8135905061073881610714565b92915050565b5f6020828403121561075357610752610707565b5b5f6107608482850161072a565b91505092915050565b5f806040838503121561077f5761077e610707565b5b5f61078c8582860161072a565b925050602061079d8582860161072a565b9150509250929050565b5f73ffffffffffffffffffffffffffffffffffffffff82169050919050565b5f819050919050565b5f6107e96107e46107df846107a7565b6107c6565b6107a7565b9050919050565b5f6107fa826107cf565b9050919050565b5f61080b826107f0565b9050919050565b61081b81610801565b82525050565b5f6020820190506108345f830184610812565b92915050565b6108438161070b565b82525050565b5f610853826107a7565b9050919050565b61086381610849565b82525050565b5f8115159050919050565b61087d81610869565b82525050565b5f6080820190506108965f83018761083a565b6108a3602083018661085a565b6108b0604083018561083a565b6108bd6060830184610874565b95945050505050565b7f4e487b71000000000000000000000000000000000000000000000000000000005f52603260045260245ffd5b5f82825260208201905092915050565b7f546f6b656e20616c726561647920736f6c6400000000000000000000000000005f82015250565b5f6109376012836108f3565b915061094282610903565b602082019050919050565b5f6020820190508181035f8301526109648161092b565b9050919050565b7f496e73756666696369656e74207061796d656e740000000000000000000000005f82015250565b5f61099f6014836108f3565b91506109aa8261096b565b602082019050919050565b5f6020820190508181035f8301526109cc81610993565b9050919050565b5f6060820190506109e65f83018661085a565b6109f3602083018561085a565b610a00604083018461083a565b949350505050565b5f602082019050610a1b5f83018461083a565b92915050565b610a2a81610849565b8114610a34575f80fd5b50565b5f81519050610a4581610a21565b92915050565b5f60208284031215610a6057610a5f610707565b5b5f610a6d84828501610a37565b91505092915050565b7f4e6f7420746f6b656e206f776e657200000000000000000000000000000000005f82015250565b5f610aaa600f836108f3565b9150610ab582610a76565b602082019050919050565b5f6020820190508181035f830152610ad781610a9e565b9050919050565b5f604082019050610af15f83018561085a565b610afe602083018461085a565b9392505050565b610b0e81610869565b8114610b18575f80fd5b50565b5f81519050610b2981610b05565b92915050565b5f60208284031215610b4457610b43610707565b5b5f610b5184828501610b1b565b91505092915050565b7f4d61726b6574706c616365206e6f7420617070726f76656400000000000000005f82015250565b5f610b8e6018836108f3565b9150610b9982610b5a565b602082019050919050565b5f6020820190508181035f830152610bbb81610b82565b905091905056fea264697066735822122007a32423cb9f9dd92b794c13fbcdbe7fabc4729acd63c385129908e23288e15164736f6c63430008150033",
  "immutableReferences": {
    "3003": [
      {
        "length": 32,
        "start": 455
      },
      {
        "length": 32,
        "start": 909
      },
      {
        "length": 32,
        "start": 1147
      },
      {
        "length": 32,
        "start": 1664
      }
    ]
  },
  "source": "// SPDX-License-Identifier: MIT\npragma solidity ^0.8.0;\n\nimport \"@openzeppelin/contracts/token/ERC721/IERC721.sol\";\n\ncontract Marketplace {\n    struct Listing {\n        uint256 tokenId;\n        address seller;\n        uint256 price;\n        bool isSold;\n    }\n\n    IERC721 public immutable nftContract;\n    Listing[] public listings;\n\n    event Listed(uint256 indexed tokenId, address indexed seller, uint256 price);\n    event Sold(uint256 indexed tokenId, address indexed seller, address indexed buyer, uint256 price);\n\n    constructor(address _nftContract) {\n        nftContract = IERC721(_nftContract);\n    }\n\n    function listToken(uint256 tokenId, uint256 price) public {\n        require(nftContract.ownerOf(tokenId) == msg.sender, \"Not token owner\");\n        require(nftContract.isApprovedForAll(msg.sender, address(this)), \"Marketplace not approved\");\n\n        listings.push(Listing(tokenId, msg.sender, price, false));\n        emit Listed(tokenId, msg.sender, price);\n    }\n\n    function buyToken(uint256 listingId) public payable {\n        Listing storage listing = listings[listingId];\n        require(!listing.isSold, \"Token already sold\");\n        require(msg.value >= listing.price, \"Insufficient payment\");\n\n        listing.isSold = true;\n        nftContract.transferFrom(listing.seller, msg.sender, listing.tokenId);\n\n        payable(listing.seller).transfer(listing.price);\n        emit Sold(listing.tokenId, listing.seller, msg.sender, listing.price);\n    }\n}\n",
  "sourcePath": "/Users/meenasmacbook/Desktop/kodikon/chatgot/contracts/Marketplace.sol",
  "compiler": {
    "name": "solc",
    "version": "0.8.21+commit.d9974bed.Emscripten.clang"
  },
  "schemaVersion": "3.4.16",
  "updatedAt": "2023-11-04T11:04:04.013Z",
  "devdoc": {
    "kind": "dev",
    "methods": {},
    "version": 1
  },
  "userdoc": {
    "kind": "user",
    "methods": {},
    "version": 1
  }
}